{
  "address": "0xe7f1725E7734CE288F8367e1Bb143E90bb3F0512",
  "abi": [
    {
      "inputs": [
        {
          "internalType": "address",
          "name": "priceFeedAddress",
          "type": "address"
        }
      ],
      "stateMutability": "nonpayable",
      "type": "constructor"
    },
    {
      "inputs": [],
      "name": "NotOwner",
      "type": "error"
    },
    {
      "stateMutability": "payable",
      "type": "fallback"
    },
    {
      "inputs": [],
      "name": "MINIMUM_USD",
      "outputs": [
        {
          "internalType": "uint256",
          "name": "",
          "type": "uint256"
        }
      ],
      "stateMutability": "view",
      "type": "function"
    },
    {
      "inputs": [
        {
          "internalType": "address",
          "name": "",
          "type": "address"
        }
      ],
      "name": "addressToAmountFunded",
      "outputs": [
        {
          "internalType": "uint256",
          "name": "",
          "type": "uint256"
        }
      ],
      "stateMutability": "view",
      "type": "function"
    },
    {
      "inputs": [],
      "name": "fund",
      "outputs": [],
      "stateMutability": "payable",
      "type": "function"
    },
    {
      "inputs": [
        {
          "internalType": "uint256",
          "name": "",
          "type": "uint256"
        }
      ],
      "name": "funders",
      "outputs": [
        {
          "internalType": "address",
          "name": "",
          "type": "address"
        }
      ],
      "stateMutability": "view",
      "type": "function"
    },
    {
      "inputs": [],
      "name": "i_owner",
      "outputs": [
        {
          "internalType": "address",
          "name": "",
          "type": "address"
        }
      ],
      "stateMutability": "view",
      "type": "function"
    },
    {
      "inputs": [],
      "name": "price",
      "outputs": [
        {
          "internalType": "uint256",
          "name": "",
          "type": "uint256"
        }
      ],
      "stateMutability": "view",
      "type": "function"
    },
    {
      "inputs": [],
      "name": "priceFeed",
      "outputs": [
        {
          "internalType": "contract AggregatorV3Interface",
          "name": "",
          "type": "address"
        }
      ],
      "stateMutability": "view",
      "type": "function"
    },
    {
      "inputs": [],
      "name": "withdraw",
      "outputs": [],
      "stateMutability": "nonpayable",
      "type": "function"
    },
    {
      "stateMutability": "payable",
      "type": "receive"
    }
  ],
  "transactionHash": "0xa14f8fc28b6a4e2b5820f62528583fe19025632a9ac296832bb15030f06c9bc5",
  "args": [
    "0x5FbDB2315678afecb367f032d93F642f64180aa3"
  ],
  "numDeployments": 1,
  "solcInputHash": "a3d0c0473a1e0b74fb9b885314a0dd3e",
  "bytecode": "0x60a060405234801561001057600080fd5b50604051610fba380380610fba83398181016040528101906100329190610113565b3373ffffffffffffffffffffffffffffffffffffffff1660808173ffffffffffffffffffffffffffffffffffffffff1660601b8152505080600160006101000a81548173ffffffffffffffffffffffffffffffffffffffff021916908373ffffffffffffffffffffffffffffffffffffffff16021790555050610140565b600080fd5b600073ffffffffffffffffffffffffffffffffffffffff82169050919050565b60006100e0826100b5565b9050919050565b6100f0816100d5565b81146100fb57600080fd5b50565b60008151905061010d816100e7565b92915050565b600060208284031215610129576101286100b0565b5b6000610137848285016100fe565b91505092915050565b60805160601c610e556101656000396000818161030a015261059c0152610e556000f3fe60806040526004361061007f5760003560e01c8063a035b1fe1161004e578063a035b1fe14610142578063b60d42881461016d578063dba6335f14610177578063dc0d3dff146101a25761008e565b80633ccfd60b146100985780633e47d6f3146100af5780636b69a592146100ec578063741bef1a146101175761008e565b3661008e5761008c6101df565b005b6100966101df565b005b3480156100a457600080fd5b506100ad610308565b005b3480156100bb57600080fd5b506100d660048036038101906100d191906107e3565b610549565b6040516100e39190610829565b60405180910390f35b3480156100f857600080fd5b50610101610561565b60405161010e9190610829565b60405180910390f35b34801561012357600080fd5b5061012c61056e565b60405161013991906108a3565b60405180910390f35b34801561014e57600080fd5b50610157610594565b6040516101649190610829565b60405180910390f35b6101756101df565b005b34801561018357600080fd5b5061018c61059a565b60405161019991906108cd565b60405180910390f35b3480156101ae57600080fd5b506101c960048036038101906101c49190610914565b6105be565b6040516101d691906108cd565b60405180910390f35b6802b5e3af16b188000061021e600160009054906101000a900473ffffffffffffffffffffffffffffffffffffffff16346105fd90919063ffffffff16565b101561025f576040517f08c379a00000000000000000000000000000000000000000000000000000000081526004016102569061099e565b60405180910390fd5b6002339080600181540180825580915050600190039060005260206000200160009091909190916101000a81548173ffffffffffffffffffffffffffffffffffffffff021916908373ffffffffffffffffffffffffffffffffffffffff16021790555034600360003373ffffffffffffffffffffffffffffffffffffffff1673ffffffffffffffffffffffffffffffffffffffff16815260200190815260200160002081905550565b7f000000000000000000000000000000000000000000000000000000000000000073ffffffffffffffffffffffffffffffffffffffff163373ffffffffffffffffffffffffffffffffffffffff161461038d576040517f30cd747100000000000000000000000000000000000000000000000000000000815260040160405180910390fd5b60005b600280549050811015610439576000600282815481106103b3576103b26109be565b5b9060005260206000200160009054906101000a900473ffffffffffffffffffffffffffffffffffffffff1690506000600360008373ffffffffffffffffffffffffffffffffffffffff1673ffffffffffffffffffffffffffffffffffffffff1681526020019081526020016000208190555050808061043190610a1c565b915050610390565b50600067ffffffffffffffff81111561045557610454610a65565b5b6040519080825280602002602001820160405280156104835781602001602082028036833780820191505090505b50600290805190602001906104999291906106d9565b5060003373ffffffffffffffffffffffffffffffffffffffff16476040516104c090610ac5565b60006040518083038185875af1925050503d80600081146104fd576040519150601f19603f3d011682016040523d82523d6000602084013e610502565b606091505b5050905080610546576040517f08c379a000000000000000000000000000000000000000000000000000000000815260040161053d90610b26565b60405180910390fd5b50565b60036020528060005260406000206000915090505481565b6802b5e3af16b188000081565b600160009054906101000a900473ffffffffffffffffffffffffffffffffffffffff1681565b60005481565b7f000000000000000000000000000000000000000000000000000000000000000081565b600281815481106105ce57600080fd5b906000526020600020016000915054906101000a900473ffffffffffffffffffffffffffffffffffffffff1681565b60008061060983610639565b90506000670de0b6b3a764000085836106229190610b46565b61062c9190610bcf565b9050809250505092915050565b6000808273ffffffffffffffffffffffffffffffffffffffff1663feaf968c6040518163ffffffff1660e01b815260040160a06040518083038186803b15801561068257600080fd5b505afa158015610696573d6000803e3d6000fd5b505050506040513d601f19601f820116820180604052508101906106ba9190610c8d565b5050509150506402540be400816106d19190610d08565b915050919050565b828054828255906000526020600020908101928215610752579160200282015b828111156107515782518260006101000a81548173ffffffffffffffffffffffffffffffffffffffff021916908373ffffffffffffffffffffffffffffffffffffffff160217905550916020019190600101906106f9565b5b50905061075f9190610763565b5090565b5b8082111561077c576000816000905550600101610764565b5090565b600080fd5b600073ffffffffffffffffffffffffffffffffffffffff82169050919050565b60006107b082610785565b9050919050565b6107c0816107a5565b81146107cb57600080fd5b50565b6000813590506107dd816107b7565b92915050565b6000602082840312156107f9576107f8610780565b5b6000610807848285016107ce565b91505092915050565b6000819050919050565b61082381610810565b82525050565b600060208201905061083e600083018461081a565b92915050565b6000819050919050565b600061086961086461085f84610785565b610844565b610785565b9050919050565b600061087b8261084e565b9050919050565b600061088d82610870565b9050919050565b61089d81610882565b82525050565b60006020820190506108b86000830184610894565b92915050565b6108c7816107a5565b82525050565b60006020820190506108e260008301846108be565b92915050565b6108f181610810565b81146108fc57600080fd5b50565b60008135905061090e816108e8565b92915050565b60006020828403121561092a57610929610780565b5b6000610938848285016108ff565b91505092915050565b600082825260208201905092915050565b7f53656e64206d696e696d756d2031204574680000000000000000000000000000600082015250565b6000610988601283610941565b915061099382610952565b602082019050919050565b600060208201905081810360008301526109b78161097b565b9050919050565b7f4e487b7100000000000000000000000000000000000000000000000000000000600052603260045260246000fd5b7f4e487b7100000000000000000000000000000000000000000000000000000000600052601160045260246000fd5b6000610a2782610810565b91507fffffffffffffffffffffffffffffffffffffffffffffffffffffffffffffffff821415610a5a57610a596109ed565b5b600182019050919050565b7f4e487b7100000000000000000000000000000000000000000000000000000000600052604160045260246000fd5b600081905092915050565b50565b6000610aaf600083610a94565b9150610aba82610a9f565b600082019050919050565b6000610ad082610aa2565b9150819050919050565b7f43616c6c206661696c6564000000000000000000000000000000000000000000600082015250565b6000610b10600b83610941565b9150610b1b82610ada565b602082019050919050565b60006020820190508181036000830152610b3f81610b03565b9050919050565b6000610b5182610810565b9150610b5c83610810565b9250817fffffffffffffffffffffffffffffffffffffffffffffffffffffffffffffffff0483118215151615610b9557610b946109ed565b5b828202905092915050565b7f4e487b7100000000000000000000000000000000000000000000000000000000600052601260045260246000fd5b6000610bda82610810565b9150610be583610810565b925082610bf557610bf4610ba0565b5b828204905092915050565b600069ffffffffffffffffffff82169050919050565b610c1f81610c00565b8114610c2a57600080fd5b50565b600081519050610c3c81610c16565b92915050565b6000819050919050565b610c5581610c42565b8114610c6057600080fd5b50565b600081519050610c7281610c4c565b92915050565b600081519050610c87816108e8565b92915050565b600080600080600060a08688031215610ca957610ca8610780565b5b6000610cb788828901610c2d565b9550506020610cc888828901610c63565b9450506040610cd988828901610c78565b9350506060610cea88828901610c78565b9250506080610cfb88828901610c2d565b9150509295509295909350565b6000610d1382610c42565b9150610d1e83610c42565b9250827f7fffffffffffffffffffffffffffffffffffffffffffffffffffffffffffffff0482116000841360008413161615610d5d57610d5c6109ed565b5b817f80000000000000000000000000000000000000000000000000000000000000000583126000841260008413161615610d9a57610d996109ed565b5b827f80000000000000000000000000000000000000000000000000000000000000000582126000841360008412161615610dd757610dd66109ed565b5b827f7fffffffffffffffffffffffffffffffffffffffffffffffffffffffffffffff0582126000841260008412161615610e1457610e136109ed565b5b82820290509291505056fea2646970667358221220d8c2ce5c548b095dc94c06b5360f13106c044f34bc6cf5887a72b3ddac5ff82e64736f6c63430008080033",
  "devdoc": {
    "kind": "dev",
    "methods": {},
    "version": 1
  },
  "userdoc": {
    "kind": "user",
    "methods": {},
    "version": 1
  },
  "storageLayout": {
    "storage": [
      {
        "astId": 60,
        "contract": "contracts/FundMe.sol:FundMe",
        "label": "price",
        "offset": 0,
        "slot": "0",
        "type": "t_uint256"
      },
      {
        "astId": 63,
        "contract": "contracts/FundMe.sol:FundMe",
        "label": "priceFeed",
        "offset": 0,
        "slot": "1",
        "type": "t_contract(AggregatorV3Interface)45"
      },
      {
        "astId": 66,
        "contract": "contracts/FundMe.sol:FundMe",
        "label": "funders",
        "offset": 0,
        "slot": "2",
        "type": "t_array(t_address)dyn_storage"
      },
      {
        "astId": 70,
        "contract": "contracts/FundMe.sol:FundMe",
        "label": "addressToAmountFunded",
        "offset": 0,
        "slot": "3",
        "type": "t_mapping(t_address,t_uint256)"
      }
    ],
    "types": {
      "t_address": {
        "encoding": "inplace",
        "label": "address",
        "numberOfBytes": "20"
      },
      "t_array(t_address)dyn_storage": {
        "base": "t_address",
        "encoding": "dynamic_array",
        "label": "address[]",
        "numberOfBytes": "32"
      },
      "t_contract(AggregatorV3Interface)45": {
        "encoding": "inplace",
        "label": "contract AggregatorV3Interface",
        "numberOfBytes": "20"
      },
      "t_mapping(t_address,t_uint256)": {
        "encoding": "mapping",
        "key": "t_address",
        "label": "mapping(address => uint256)",
        "numberOfBytes": "32",
        "value": "t_uint256"
      },
      "t_uint256": {
        "encoding": "inplace",
        "label": "uint256",
        "numberOfBytes": "32"
      }
    }
  }
}